{
  "contractName": "KittyMock",
  "abi": [
    {
      "constant": true,
      "inputs": [
        {
          "name": "",
          "type": "uint256"
        }
      ],
      "name": "getKitty",
      "outputs": [
        {
          "name": "isGestating",
          "type": "bool"
        },
        {
          "name": "isReady",
          "type": "bool"
        },
        {
          "name": "cooldownIndex",
          "type": "uint256"
        },
        {
          "name": "nextActionAt",
          "type": "uint256"
        },
        {
          "name": "siringWithId",
          "type": "uint256"
        },
        {
          "name": "birthTime",
          "type": "uint256"
        },
        {
          "name": "matronId",
          "type": "uint256"
        },
        {
          "name": "sireId",
          "type": "uint256"
        },
        {
          "name": "generation",
          "type": "uint256"
        },
        {
          "name": "genes",
          "type": "uint256"
        }
      ],
      "payable": false,
      "stateMutability": "view",
      "type": "function"
    }
  ],
  "bytecode": "0x608060405234801561001057600080fd5b50610156806100206000396000f300608060405260043610610041576000357c0100000000000000000000000000000000000000000000000000000000900463ffffffff168063e98b7f4d14610046575b600080fd5b34801561005257600080fd5b50610071600480360381019080803590602001909291905050506100ce565b604051808b1515151581526020018a1515151581526020018981526020018881526020018781526020018681526020018581526020018481526020018381526020018281526020019a505050505050505050505060405180910390f35b600080600080600080600080600080600060016000806000426000806000660462d53c8abac0879750869650859550839350829250819150809050995099509950995099509950995099509950995091939597995091939597995600a165627a7a723058205b385598d6b48a4fdf0171d37f27906395996ff38c57329e40b5d302b2e47cea0029",
  "source": "pragma solidity ^0.4.25;\n\n/**\n * @dev Minimal stub of the CryptoKitties core contract used for local testing.\n * It returns deterministic values so the zombie feeding logic can execute.\n */\ncontract KittyMock {\n  function getKitty(uint256)\n    external\n    view\n    returns (\n      bool isGestating,\n      bool isReady,\n      uint256 cooldownIndex,\n      uint256 nextActionAt,\n      uint256 siringWithId,\n      uint256 birthTime,\n      uint256 matronId,\n      uint256 sireId,\n      uint256 generation,\n      uint256 genes\n    )\n  {\n    return (false, true, 0, 0, 0, now, 0, 0, 0, 1234567890123456);\n  }\n}\n\n",
  "sourcePath": "C:\\Users\\yashw\\Downloads\\Advance-Blockchain-Mid-term-project-main\\Advance-Blockchain-Mid-term-project-main\\contracts\\KittyMock.sol",
  "compiler": {
    "name": "solc",
    "version": "0.4.25+commit.59dbf8f1.Emscripten.clang"
  },
  "schemaVersion": "3.4.16",
  "updatedAt": "2025-10-19T21:02:58.985Z",
  "networkType": "ethereum",
  "devdoc": {
    "methods": {}
  },
  "userdoc": {
    "methods": {}
  }
}